:100000000AC023C022C021C020C01FC01EC01DC006
:100010001CC01BC01AC011241FBECFEDCDBF10E005
:10002000A0E6B0E0EEE9F0E003C0C89531960D928D
:10003000A436B107D1F710E0A4E6B0E001C01D92EC
:10004000A936B107E1F702D029C0DACF8FEF87BB1D
:1000500088E781BB80EC8093650086E88093670029
:1000600087EC8093660089E88093680020916400A3
:1000700082B3886782BBA22FBB27FB2FEA2FEB59E5
:10008000FF4F808188BB82B3A05ABF4F9C918923C8
:0E00900082BB2F5F243060F320E0EACFFFCF69
:04009E00BFDFEFF7DA
:00000001FF
