:100000000AC023C022C021C020C01FC01EC01DC006
:100010001CC01BC01AC011241FBECFEDCDBF10E005
:10002000A0E6B0E0E4E9F0E003C0C89531960D9297
:10003000A036B107D1F710E0A0E6B0E001C01D92F4
:10004000A136B107E1F702D024C0DACF9FEF97BB0A
:1000500088E781BB98BB92BB85E083BF82E089BF04
:1000600078949FEB8EEF92BB88BBFDCF1F920F92CF
:100070000FB60F9211248F93809160008F5F809351
:1000800060008BEF88BB8F910F900FBE0F901F9079
:040090001895FFCFF1
:00000001FF
