:100000000C9438000C9455000C9455000C94550039
:100010000C9455000C9455000C9455000C9455000C
:100020000C9455000C9455000C9455000C945500FC
:100030000C9455000C9455000C9455000C945500EC
:100040000C9455000C9455000C9455000C945500DC
:100050000C9455000C9455000C9455000C945500CC
:100060000C9455000C9455000C9455000C945500BC
:1000700011241FBECFEFD4E0DEBFCDBF11E0A0E062
:10008000B1E0EAEBF9E002C005900D92A030B107B3
:10009000D9F711E0A0E0B1E001C01D92A030B10796
:1000A000E1F70E943B030C94DC040C940000CF9217
:1000B000DF92EF92FF920F931F93CF93DF93C62EA1
:1000C000D42E882319F0C0E0D0E050C1C0E0D0E0C9
:1000D000A3C0C19A6D2D772767FD7095872F972F45
:1000E0000E941A04D7FE06C020E030E040E853E446
:1000F0000E94BB0320E030E04AEF54E40E949104E8
:100100007B018C0120E030E040E85FE30E942404A2
:1001100088231CF481E090E012C020E03FEF4FE71D
:1001200057E4C801B7010E94270418161CF480E0A8
:1001300090E005C0C801B7010E94FD03CB01019703
:10014000F1F718BAC39A20E030E040E85FE3C80155
:10015000B7010E94240488231CF481E090E012C0BF
:1001600020E03FEF4FE757E4C801B7010E942704A2
:1001700018161CF480E090E005C0C801B7010E9489
:10018000FD03CB010197F1F718BAC09A20E030E0E7
:1001900040E85FE3C801B7010E94240488231CF4EF
:1001A00081E090E012C020E03FEF4FE757E4C80144
:1001B000B7010E94270418161CF480E090E005C0E7
:1001C000C801B7010E94FD03CB010197F1F718BAEE
:1001D000C29A20E030E040E85FE3C801B7010E9426
:1001E000240488231CF481E090E012C020E03FEF5B
:1001F0004FE757E4C801B7010E94270418161CF402
:1002000080E090E005C0C801B7010E94FD03CB016A
:100210000197F1F718BA21968C2D9927C817D9079D
:100220000CF457CFA9C0C29A6D2D772767FD709542
:10023000872F972F0E941A04D7FE06C020E030E0D7
:1002400040E853E40E94BB0320E030E04AEF54E46E
:100250000E9491047B018C0120E030E040E85FE3E4
:100260000E94240488231CF481E090E012C020E066
:100270003FEF4FE757E4C801B7010E942704181663
:100280001CF480E090E005C0C801B7010E94FD03A6
:10029000CB010197F1F718BAC09A20E030E040E8AE
:1002A0005FE3C801B7010E94240488231CF481E0A5
:1002B00090E012C020E03FEF4FE757E4C801B701DC
:1002C0000E94270418161CF480E090E005C0C801C5
:1002D000B7010E94FD03CB010197F1F718BAC39A49
:1002E00020E030E040E85FE3C801B7010E94240449
:1002F00088231CF481E090E012C020E03FEF4FE73C
:1003000057E4C801B7010E94270418161CF480E0C6
:1003100090E005C0C801B7010E94FD03CB01019721
:10032000F1F718BAC19A20E030E040E85FE3C80175
:10033000B7010E94240488231CF481E090E012C0DD
:1003400020E03FEF4FE757E4C801B7010E942704C0
:1003500018161CF480E090E005C0C801B7010E94A7
:10036000FD03CB010197F1F718BA21968C2D99273F
:10037000C817D9070CF457CFDF91CF911F910F9178
:10038000FF90EF90DF90CF900895CF92DF92EF92A1
:10039000FF920F931F93CF93DF93C62ED42E882303
:1003A00019F0C0E0D0E058C1C0E0D0E0A7C0C19AC9
:1003B000C39A6D2D772767FD7095872F972F0E9421
:1003C0001A04D7FE06C020E030E040E853E40E9463
:1003D000BB0320E030E04AEF54E40E9491047B012B
:1003E0008C0120E030E040E85FE30E942404882391
:1003F0001CF481E090E012C020E03FEF4FE757E4AB
:10040000C801B7010E94270418161CF480E090E090
:1004100005C0C801B7010E94FD03CB010197F1F7A8
:1004200018BAC39AC09A20E030E040E85FE3C80100
:10043000B7010E94240488231CF481E090E012C0DC
:1004400020E03FEF4FE757E4C801B7010E942704BF
:1004500018161CF480E090E005C0C801B7010E94A6
:10046000FD03CB010197F1F718BAC09AC29A20E0B8
:1004700030E040E85FE3C801B7010E94240488230C
:100480001CF481E090E012C020E03FEF4FE757E41A
:10049000C801B7010E94270418161CF480E090E000
:1004A00005C0C801B7010E94FD03CB010197F1F718
:1004B00018BAC29AC19A20E030E040E85FE3C80170
:1004C000B7010E94240488231CF481E090E012C04C
:1004D00020E03FEF4FE757E4C801B7010E9427042F
:1004E00018161CF480E090E005C0C801B7010E9416
:1004F000FD03CB010197F1F718BA21968C2D9927AE
:10050000C817D9070CF453CFADC0C29AC19A6D2D4C
:10051000772767FD7095872F972F0E941A04D7FEC3
:1005200006C020E030E040E853E40E94BB0320E036
:1005300030E04AEF54E40E9491047B018C0120E0FA
:1005400030E040E85FE30E94240488231CF481E04B
:1005500090E012C020E03FEF4FE757E4C801B70139
:100560000E94270418161CF480E090E005C0C80122
:10057000B7010E94FD03CB010197F1F718BAC09AA9
:10058000C29A20E030E040E85FE3C801B7010E9472
:10059000240488231CF481E090E012C020E03FEFA7
:1005A0004FE757E4C801B7010E94270418161CF44E
:1005B00080E090E005C0C801B7010E94FD03CB01B7
:1005C0000197F1F718BAC39AC09A20E030E040E8EA
:1005D0005FE3C801B7010E94240488231CF481E072
:1005E00090E012C020E03FEF4FE757E4C801B701A9
:1005F0000E94270418161CF480E090E005C0C80192
:10060000B7010E94FD03CB010197F1F718BAC19A17
:10061000C39A20E030E040E85FE3C801B7010E94E0
:10062000240488231CF481E090E012C020E03FEF16
:100630004FE757E4C801B7010E94270418161CF4BD
:1006400080E090E005C0C801B7010E94FD03CB0126
:100650000197F1F718BA21968C2D9927C817D90759
:100660000CF453CFDF91CF911F910F91FF90EF903A
:10067000DF90CF9008958FE087BB80EF88BB45E087
:100680006CE081E00E94570045E06CE080E00E9451
:10069000570045E06CE081E00E94570045E06CE0C7
:1006A00080E00E94570045E06CE081E00E94570026
:1006B00045E06CE080E00E9457004AE068E181E09C
:1006C0000E94C5014AE068E180E00E94C5014AE05D
:1006D00068E181E00E94C5014AE068E180E00E9493
:1006E000C5014AE068E181E00E94C50142E36CE097
:1006F00081E00E94570048E26CE081E00E945700D0
:100700004EE16CE081E00E94570044E16CE081E042
:100710000E9457004FE06CE081E00E9457004AE0E1
:100720006CE081E00E94570045E06CE081E00E94AF
:10073000570044E06CE081E00E94570043E06CE029
:1007400081E00E94570042E06CE081E00E94570087
:1007500042E06CE081E00E94570042E06CE081E002
:100760000E94570042E060EF81E00E94570080E065
:1007700090E008955058192EA6D001D08CC0BA1719
:100780006207730784079507B1F188F40EF410949B
:100790000B2EBA2FA02D062E622F202D072E732F81
:1007A000302D082E842F402D092E952F502DFF27F8
:1007B0005523B9F0591B49F0573E98F046953795A7
:1007C0002795A795F0405395C9F776F0BA0F621FA9
:1007D000731F841F30F4879577956795B795F04020
:1007E000939517FA0F2E0895BF1BBB27BA0B620B08
:1007F000730B840BF6CFDEF692C097FB70D09F3759
:1008000038F0FEE9F91B982F872F762F6B2F05C044
:1008100083C09695879577956795F150D0F73EF40C
:1008200090958095709561957F4F8F4F9F4F08955C
:10083000E89403C097FB0EF4F3DFB62F672F782FF1
:10084000892F9EE9002427C00ED05EF004C00BD093
:1008500026F001C008D019F020F48FEF089580E051
:10086000089581E0089597FB092E052600F8689405
:100870002DD0E89407FC07C062177307840795071B
:1008800021F008F400940794989408959A95BB0F6A
:10089000661F771F881F11249923A1F08823B2F7C0
:1008A0009F3F59F0BB0F48F421F4002011F460FF82
:1008B00004C06F5F7F4F8F4F9F4F881F979587951D
:1008C00097F9089529C0052E092607FA440F551FE8
:1008D0005F3F79F0AA27A51708F051E04795880FE8
:1008E000991F9F3F31F0BB27B91708F091E087951A
:1008F00008959F919F9111245CC097FB880F991FC9
:100900009F3F31F0BB27B91708F091E08795089514
:100910009F919F9111244DC066277727882799279B
:100920000895D1DF01D0B7CF992339F0552329F0AD
:100930009F575F57950F13F49AF1F1CF91589F3F4E
:10094000E1F3629FA12D0F92BB27639FA00DB11D04
:10095000EE27729FA00DB11DEE1FAF93AA27649FD3
:10096000B00DE11D739FB00DE11DAA1F6627829F88
:10097000B00DE11DA61F5527749FE00DA11D551F49
:10098000839FE00DA11D561F849FA00D511D852F33
:100990007A2F6E2F1F900F9088231AF4939539F4B5
:1009A00008C0000C111CBB1F661F771F881F012881
:0A09B00008959FEF80EC0895FFCF3B
:00000001FF
