:1000000012C02AC029C028C027C026C025C024C0CD
:1000100023C022C021C020C01FC01EC01DC01CC0E4
:100020001BC01AC019C011241FBECFEDCDBF10E0F8
:10003000A0E6B0E0E4E6FAE002C005900D92A43735
:10004000B107D9F710E0A4E7B0E001C01D92A938CC
:10005000B107E1F702D004C5D3CF94988FEF87BBE7
:1000600088E781BB12B889E189B988E18AB98EE055
:1000700083B985EE90E06BEE70E0B2D000D080E600
:1000800090E0EDB7FEB792838183F5D00F900F908B
:100090009498FECF00008150E9F708958C9A0000F3
:1000A0008C988EE000008150E9F780B39BE300005C
:1000B0009150E9F7829582700895882359F08C9ABF
:1000C0008BE000008150E9F78C988CE300008150B0
:1000D000E9F708958C9A86E400008150E9F78C983E
:1000E00008950F931F9310E0082F0170802FE5DF14
:1000F0001F5F1830D9F71F910F910895FF920F934A
:100100001F93CF93DF9384E790E090937E008093DA
:100110007D00FF2419C0C2DF882311F4812F01C0A4
:10012000802F182B000F2196C830D105A1F7E09140
:100130007D00F0917E001193F0937E00E0937D00AE
:10014000F39489E0F81629F001E010E0C0E0D0E077
:10015000E2CFDF91CF911F910F91FF900895FB01A6
:100160009081382F20E058E18927482F417080FD89
:100170009527892F8695942F979599279795980F6E
:100180002F5F283019F03695832FEECF9083089596
:100190008C9A8FEF00008150E9F783EB00008150CB
:1001A000E9F78C9881E400008150E9F7859B0BC04A
:1001B0008FEF00008150E9F78CE400008150E9F7EF
:1001C000859B02C0089581E008955D9BFECF8CB9A8
:1001D00080E090E008955F9BFECF8CB190E00895A1
:1001E0000F931F93CF93DF938C01EB01009731F4B2
:1001F0006115710519F420E030E037C081E090E02E
:100200006EE070E01DD2FC019C01009771F180E866
:100210008383209771F0D387C28781E8838380919D
:100220007F0090918000892B21F4F0938000E0936F
:100230007F0001151105C9F0118700878381826055
:1002400083838091810090918200892B71F4F093D7
:100250008200E09381008091830090918400892B3B
:1002600021F4F0938400E0938300C901DF91CF91E2
:100270001F910F910895A0E0B0E0E0E4F1E0C9C360
:10028000FE0135966191719180918100909182007B
:10029000AF0103D02096E2E0D8C3ABE0B0E0E2E5E6
:1002A000F1E0A7C34C012B015A01FC011782168211
:1002B000838181FD03C06FEF7FEFBEC11E010894F3
:1002C000211C311C9FE3692EF4013381F20133FDBF
:1002D000859133FF81912F01882309F4AAC18532CA
:1002E00039F433FD859133FF81912F01853221F45B
:1002F00090E0B401E0D2E8CF982FFF24EE247724D9
:10030000FFE1FF15D0F09B3269F09C3228F4903267
:1003100059F0933291F40EC09D3249F0903369F454
:1003200041E02AC052E0F52A84E0F82A2EC098E085
:10033000F92A2BC0E0E1FE2A28C0F7FC2FC0292FA4
:1003400020532A30A0F4F6FE08C0872D90E06AE022
:1003500070E03DD3782E720E18C08E2D90E06AE0CA
:1003600070E035D3E82EE20EF0E2FF2A0EC09E3296
:1003700029F4F6FC5EC140E4F42A07C09C3619F467
:1003800050E8F52A02C0983649F4F20133FD959100
:1003900033FF91912F01992309F0B2CF892F855412
:1003A000833018F08052833030F444E050E0A40EE3
:1003B000B51E69820FC0933631F0933779F09335CB
:1003C00009F052C01FC0F5018081898342E050E0EE
:1003D000A40EB51E610101E010E011C0F501C0805E
:1003E000D180F6FC03C06FEF7FEF02C0672D70E095
:1003F00042E050E0A40EB51EC60152D28C015FE768
:10040000F52213C0F501C080D180F6FC03C06FEF68
:100410007FEF02C0672D70E042E050E0A40EB51EF1
:10042000C6012CD28C0150E8F52AF3FE06C018C094
:1004300080E290E0B4013FD2EA948E2D90E008175C
:100440001907B0F30DC0F601F7FC8591F7FE819115
:100450006F0190E0B4012FD2E110EA9401501040F6
:100460000115110581F7E2C0943611F0993661F556
:10047000F7FE08C0F501208131814281538184E07B
:1004800090E00AC0F501808191819C01442737FDED
:100490004095542F82E090E0A80EB91E9FE6F92205
:1004A00057FF09C050954095309521953F4F4F4FCC
:1004B0005F4FE0E8FE2ACA01B901A1012AE030E05D
:1004C00026D2D82ED2183FC0953729F41F2D1F7E73
:1004D0002AE030E01DC01F2D197F9F3661F0903754
:1004E00020F4983509F0A5C00FC0903739F098373F
:1004F00009F09FC004C028E030E00AC0106114FD7C
:10050000146020E130E004C014FD166020E132E008
:1005100017FF08C0F501608171818281938144E0F9
:1005200050E008C0F50180819181BC0180E090E03D
:1005300042E050E0A40EB51EA101E9D1D82ED21898
:100540008FE7F82EF122F6FE0BC05EEFF522D714EE
:1005500038F4F4FE07C0F2FC05C08FEEF82202C0AA
:100560001D2D01C0172DF4FE0DC0FE01ED0DF11D76
:100570008081803319F499EEF92208C01F5FF2FEE2
:1005800005C003C08F2D867809F01F5F0F2DF3FC87
:1005900013C0F0FE0EC01E1510F07D2C0AC07D2C7D
:1005A0007E0C711A1E2D05C080E290E0B40183D14B
:1005B0001F5F1E15C8F304C01E1510F4E11A01C018
:1005C000EE2404FF0EC080E390E0B40174D102FF7A
:1005D0001BC001FD03C088E790E00EC088E590E0F5
:1005E0000BC0802F867881F001FF02C08BE201C032
:1005F00080E2F7FC8DE290E0B4015DD105C080E3BC
:1006000090E0B40158D17A94D714C8F3DA94F10188
:10061000ED0DF11D808190E0B4014DD1DD20B1F7E9
:1006200005C080E290E0B40146D1EA94EE20C9F71B
:100630004BCEF40166817781CB012B96E2E1F5C1C7
:100640000F931F93CF93DF939C01CB01B901BFD1CF
:10065000182F092F0ED0EC01009729F060E070E010
:10066000412F502F16D1CE01DF91CF911F910F91C5
:100670000895CF93DF93BC018230910510F462E0BE
:1006800070E0A0918700B0918800ED01E0E0F0E01B
:1006900040E050E021C0888199818617970769F46E
:1006A0008A819B81309719F09383828304C0909351
:1006B000880080938700FE0134C06817790738F4FA
:1006C0004115510519F08417950708F4AC01FE0196
:1006D0008A819B819C01E9012097E9F6411551052A
:1006E000A9F1CA01861B970B049708F4BA01E0E050
:1006F000F0E02AC08D919C91119784179507F9F429
:100700006417750781F412968D919C911397309719
:1007100019F09383828304C09093880080938700AC
:10072000FD0132964FC0CA01861B970BFD01E80FF1
:10073000F91F6193719302978D939C9343C0FD01C0
:10074000828193819C01D9011097A1F68091850047
:1007500090918600892B41F48091700090917100F6
:1007600090938600809385004091720050917300B1
:100770004115510541F44DB75EB780916E009091DF
:100780006F00481B590B209185003091860024177B
:100790003507B0F4CA01821B930B8617970780F0C8
:1007A000AB014E5F5F4F8417950750F0420F531F08
:1007B0005093860040938500F9016193719302C0C4
:1007C000E0E0F0E0CF01DF91CF910895CF93DF9388
:1007D000009709F450C0EC0122971B821A82A09165
:1007E0008700B0918800109709F140E050E0AC1705
:1007F000BD0708F1BB83AA83FE0121913191E20F6D
:10080000F31FAE17BF0779F48D919C911197280FB4
:10081000391F2E5F3F4F3983288312968D919C910B
:1008200013979B838A834115510571F4D0938800F7
:10083000C093870020C012968D919C911397AD01B3
:10084000009711F0DC01D3CFFA01D383C283219149
:100850003191E20FF31FCE17DF0769F48881998188
:10086000280F391F2E5F3F4FFA01318320838A8181
:100870009B8193838283DF91CF910895FC01059042
:10088000615070400110D8F7809590958E0F9F1F92
:100890000895DC0101C06D9341505040E0F7089588
:1008A000FC016150704001900110D8F7809590953F
:1008B0008E0F9F1F08950F931F93CF93DF938C018B
:1008C000EB018B8181FF1BC082FF0DC02E813F8118
:1008D0008C819D812817390764F4E881F98101939F
:1008E000F983E88306C0E885F985802F0995892B6F
:1008F00031F48E819F8101969F838E8302C00FEF1A
:100900001FEFC801DF91CF911F910F910895FA0158
:10091000AA27283061F1203191F1E8946F936E7F1E
:100920006E5F7F4F8F4F9F4FAF4FB1E040D0B4E02D
:100930003ED0670F781F891F9A1FA11D680F791F6E
:100940008A1F911DA11D6A0F711D811D911DA11D81
:1009500022D009F468943F91062E000C3019000C47
:10096000000C3019305D3193CEF6CF010895462F3B
:100970004770405D4193B3E00FD0C9F7F6CF462FE3
:100980004F70405D4A3318F0495D31FD405241934C
:1009900002D0A9F7EACFB4E0A69597958795779509
:1009A0006795BA95C9F700976105710508959B0190
:1009B000AC010A2E06945795479537952795BA9519
:1009C000C9F7620F731F841F951FA01D0895552737
:1009D000002480FF02C0060E571F660F771F6115A7
:1009E000710521F096958795009799F7952F802DA1
:1009F00008952F923F924F925F926F927F928F92C3
:100A00009F92AF92BF92CF92DF92EF92FF920F939D
:100A10001F93CF93DF93CDB7DEB7CA1BDB0B0FB6A7
:100A2000F894DEBF0FBECDBF09942A883988488864
:100A30005F846E847D848C849B84AA84B984C884FA
:100A4000DF80EE80FD800C811B81AA81B981CE0FF1
:100A5000D11D0FB6F894DEBF0FBECDBFED010895D6
:040A6000F894FFCF38
:100A640048656C6C6F20776F726C64210D002000F8
:040A740089000000F5
:00000001FF
