:100000000C9490000C94AD000C94AD000C94AD00D9
:100010000C94AD000C94AD000C94AD000C94AD00AC
:100020000C94AD000C94AD000C94AD000C94AD009C
:100030000C94AD000C94AD000C94AD000C94AD008C
:100040000C94AD000C94AD000C94AD000C94AD007C
:100050000C94AD000C94AD000C94AD000C94AD006C
:100060000C94AD000C94AD000C94AD000C94AD005C
:100070004B6F6E6965630D0A0033323D28333229B8
:1000800031367831362057796E696B3A20256C7598
:100090000D0A0033323D31367831362057796E699A
:1000A0006B3A20256C750D0A0028333229313678D9
:1000B00031362057796E696B3A2025750D0A002874
:1000C0003332293136782833322931362057796E48
:1000D000696B3A2025750D0A0028333229283136FC
:1000E000783136292057796E696B3A2025750D0ACB
:1000F0000031367831362057796E696B2025750DC1
:100100000A003878382057796E696B2025750D0AFA
:100110000048656C6C6F20776F726C64210D0A006B
:1001200011241FBECFEFD4E0DEBFCDBF11E0A0E0B1
:10013000B1E0E2EEF9E002C005900D92AE30B107F9
:10014000D9F711E0AEE0B1E001C01D92AE30B107C9
:10015000E1F70E94AF000C94F0040C9400000F93A0
:100160001F93CF93DF9310BC87E689B986E880BDE3
:1001700088E18AB91BB860910C0170910D0181E191
:1001800091E00E948C0188EC90E09F938F9382E035
:1001900091E09F938F9380910C0190910D019F931B
:1001A0008F930E946101DF93CF9381EF90E09F9343
:1001B0008F9380910C0190910D019F938F930E94DA
:1001C000610189E199E19F938F9389ED90E09F937D
:1001D0008F9380910C0190910D019F938F930E94BA
:1001E000610100E81FE71F930F938FEB90E09F934F
:1001F0008F9380910C0190910D019F938F930E949A
:1002000061011F930F9389EA90E09F938F938091F0
:100210000C0190910D019F938F930E94610180E0EA
:100220009BEFA0E0B0E0BF93AF939F938F9383E9E0
:1002300090E09F938F9380910C0190910D019F937B
:100240008F930E9461018DB79EB786960FB6F89482
:100250009EBF0FBE8DBF80E09BEFA4E0B0E0BF93D8
:10026000AF939F938F9389E790E09F938F938091B3
:100270000C0190910D019F938F930E9461016091F9
:100280000C0170910D0180E790E00E948C018DB708
:100290009EB708960FB6F8949EBF0FBE8DBF80E044
:1002A00090E0DF91CF911F910F9108955D9BFECF5C
:1002B0008CB980E090E008955F9BFECF8CB19927C8
:1002C00008950F931F93CF93DF93CDB7DEB7229797
:1002D0000FB6F894DEBF0FBECDBF09851A85AE01FB
:1002E000435F5F4F5A834983F8018381886083832A
:1002F0006B857C85C8010E94B701F8012381277FA7
:10030000238322960FB6F894DEBF0FBECDBFDF91D8
:10031000CF911F910F910895EF92FF920F931F932A
:10032000CF93DF93EC018B01FB01838181FD04C03E
:100330009FEFE92EF92E13C0EE24FF240CC0F80124
:1003400020853185B801F9010995892B19F08FEFC6
:10035000E82EF82E2196FE018491882381F7C701AB
:10036000DF91CF911F910F91FF90EF9008952F9201
:100370003F924F925F926F927F928F929F92AF9235
:10038000BF92CF92DF92EF92FF920F931F93CF9382
:10039000DF93CDB7DEB764970FB6F894DEBF0FBE1C
:1003A000CDBFCC24DD2476011C017C8B6B8B2A0114
:1003B000FC0117821682838181FD03C08FEF9FEFBE
:1003C00088C2AA24BB2472C2A0FE57C28A89805365
:1003D0008A30E8F4FA89F03341F42D85222329F498
:1003E000A3FC03C080E091E06FC08AE0ED85E802E5
:1003F000C0011124FA89F80FF053FD87F7FF02C0FE
:100400002FE72D87A3FC4CC23D853E8749C2C5011D
:1004100088709070A3FE05C0ED85EE2311F4F1E025
:10042000FD872A89283624F525360CF05BC0233554
:1004300009F480C024358CF42B32C1F12C3234F411
:100440002032C1F1233209F00DC23CC03A893D325D
:10045000B1F13E3209F006C23AC08A89833609F406
:1004600049C084360CF081C0883509F0FBC11BC03F
:10047000EA89E03709F4A3C0E13744F4EC3669F1C6
:10048000EF3671F0E93609F0EDC16FC0FA89F53742
:1004900009F49DC0F83739F0F33709F0E3C134C0EF
:1004A00028E0298B94C030E1398B91C080E190E045
:1004B000A82AB92AE0E2F0E0AE2ABF2AF1C120E87A
:1004C00030E00DC080E490E0A82AB92AE9C1E8E054
:1004D000F0E0AE2ABF2A1D86E3C124E030E0A22A64
:1004E000B32ADEC14FE3C42E3E8531503E8783E6FA
:1004F0008A8B44C1F201C080FE85F150FE8722E064
:1005000030E0420E531E3AC1F201C080D180892BE7
:1005100049F0FD856F2F772767FD7095C6010E9412
:10052000960419C0F60101900020E9F73197EC1903
:10053000E98B12C0F201C080D180892B49F0FD8582
:100540006F2F772767FD7095C6010E948B0403C04B
:10055000C6010E948204898B22E030E0420E531EC5
:100560003E858989381B3E8709C1A2FE08C0F20179
:1005700080819181A281B38124E030E009C0F20141
:1005800080819181AA2797FDA095BA2F22E030E0C3
:10059000420E531E6C017D01B7FF0CC082E090E05B
:1005A000A82AB92AF094E094D094C094C11CD11C1C
:1005B000E11CF11CEFEBFFEFAE22BF2221C020E4D3
:1005C00030E0A22AB32A38E73A8B80E1898BA2FE79
:1005D00008C0F20180819181A281B38124E030E0E2
:1005E00007C0F20180819181AA27BB2722E030E079
:1005F000420E531E6C017D018FEC9FEFA822B922A1
:1006000087017601FE013196F88BEF87F9896F2E0D
:10061000772488249924C801B701A40193010E947A
:10062000CE046A3024F02A89620F615201C0605DF5
:10063000EF85F8896193F88BEF87C801B701A401B2
:1006400093010E94CE0479018A01211531054105EB
:10065000510509F7CC24DD247601CE010196CF8423
:10066000C81AC50182739070892B19F0FE85F1506C
:10067000FE87A6FE09C02989203111F482E001C05D
:1006800081E03E85381B3E8738E0832E912C8A20FE
:100690009B20A3FE1BC08D85282F332727FD309577
:1006A0008C2D99278217930754F0E7EFFFEFAE22C6
:1006B000BF2228E0822E912C8A209B2007C0FD8536
:1006C000FC19FD872E852F1B2E8703C03E853C1904
:1006D0003E87C50180789170892B69F48E8506C0AC
:1006E000B10180E290E00E94A104812F182F1150E7
:1006F0001816B4F31E87A1FE04C0B1018DE290E08C
:100700000BC0A4FE04C0B1018BE290E005C0A5FEC1
:1007100005C0B10180E290E00E94A104A6FE10C0D5
:10072000B10180E390E00E94A1048989803141F405
:10073000B101EA898E2F992787FD90950E94A10427
:10074000B0FE0DC08E8506C0B10180E390E00E942E
:10075000A104812F182F11501816B4F31E87892871
:1007600069F02D8506C0B10180E390E00E94A104EC
:10077000212F122F11501216B4F31D8790E8692E05
:10078000712C6A207B20A7FC0DC08E8506C0B101AC
:1007900080E290E00E94A104812F182F11501816BA
:1007A000B4F31E87FA89F33641F4B1018C2D9927F1
:1007B00087FD90950E94A10445C02A892337B1F492
:1007C00046015601198909C0F50181915F01B10106
:1007D000992787FD90950E94A1041150A8F7640104
:1007E000F989CF0ED11C2FEF298B2CC03A893335D4
:1007F00019F00F8518891FC046018601B98808C005
:10080000F8018491B10199270E94A1040F5F1F4F45
:10081000BA94FFEFBF16A1F764012989C20ED11C5B
:10082000F98B10C0F80182918F01B101992787FDE2
:1008300090950E94A104CE0101960817190791F71F
:10084000188B0F876728B1F08E8506C0B10180E252
:1008500090E00E94A104812F182F11501816B4F3B4
:100860001E8708C0B101FA898F2F992787FD9095BF
:100870000E94A104AA24BB2413C02A89253241F472
:100880003AE0398B1E861D8681E0A82EB12C08C067
:10089000B101EA898E2F992787FD90950E94A104C6
:1008A0002B893C892F5F3F4F3C8B2B8BF101838140
:1008B00083FF04C0EB89FC89F49103C0EB89FC89B8
:1008C000F081FA8B2A89222309F07ECDF1018681FD
:1008D000978164960FB6F894DEBF0FBECDBFDF914F
:1008E000CF911F910F91FF90EF90DF90CF90BF902D
:1008F000AF909F908F907F906F905F904F903F90C0
:100900002F900895FC0105900020E9F780959095BF
:100910008E0F9F1F0895FC010590615070400110DB
:10092000D8F7809590958E0F9F1F0895FC01615018
:10093000704001900110D8F7809590958E0F9F1F01
:1009400008950F931F93CF93DF938C01EB018B815D
:10095000992781FF1BC082FF0DC02E813F818C81B2
:100960009D812817390764F4E881F9810193F9839F
:10097000E88306C0E885F985802F0995892B31F435
:100980008E819F8101969F838E8302C00FEF1FEFA0
:10099000C801DF91CF911F910F910895A1E21A2E06
:1009A000AA1BBB1BFD010DC0AA1FBB1FEE1FFF1F13
:1009B000A217B307E407F50720F0A21BB30BE40B63
:1009C000F50B661F771F881F991F1A9469F76095AA
:1009D0007095809590959B01AC01BD01CF01089564
:0209E000FFCF47
:0E09E200000000030000000056015C0100014F
:00000001FF
