:100000000AC017C016C015C014C013C012C011C05A
:1000100010C00FC00EC011241FBECFEDCDBF10E029
:10002000A0E6B0E001C01D92A836B107E1F702D00A
:1000300079C0E6CF03D08AEA2FD0FFCFB99A84EFF8
:1000400091E00197F1F7B99888E28A95F1F786B3C4
:1000500086ED91E00197F1F786B390E0969587954C
:1000600081700895B99A96E09A95F1F7813009F474
:10007000B9988AE68A95F1F7B9980895B99A82E015
:100080008A95F1F7B99884E18A95F1F786B390E003
:1000900096958795817008950F931F93CF93DF9363
:1000A000C0E0D0E0082F10E0802F912F0C2E02C06E
:1000B000959587950A94E2F78170D4DF2196C83030
:1000C000D10591F785E88A95F1F7DF91CF911F91DE
:1000D0000F910895EF92FF920F931F93CF93DF93A9
:1000E00010E0C0E0D0E041E0E42EF12C04E1C6DFF6
:1000F000882349F08E2D9F2D0C2E02C0880F991F4A
:100100000A94E2F7182B802F8A95F1F72196C830D0
:10011000D10569F7812FDF91CF911F910F91FF904A
:08012000EF900895F894FFCF61
:00000001FF
