:100000000C9438000C9455000C9455000C94550039
:100010000C9455000C9455000C9455000C9455000C
:100020000C9455000C9455000C9455000C945500FC
:100030000C9455000C9455000C9455000C945500EC
:100040000C9455000C9455000C9455000C945500DC
:100050000C9455000C9455000C9455000C945500CC
:100060000C9455000C9455000C9455000C945500BC
:1000700011241FBECFEFD4E0DEBFCDBF11E0A0E062
:10008000B1E0E8ECF0E002C005900D92A030B107BD
:10009000D9F711E0A0E0B1E001C01D92A030B10796
:1000A000E1F70E9457000C9463000C9400008CE36D
:1000B00082BB8FEF87BB8CE281BB8FEE88BB9598AC
:0800C00080E090E00895FFCFFD
:1000C8008CE382BB8FEF87BB8CE281BB8DEF88BB53
:0400D8009598FFCF29
:00000001FF
