:1000000011C02AC029C028C027C026C025C024C0CE
:1000100023C022C021C020200044616E65207A20C8
:1000200049303A0011241FBECFEDCDBF10E0A0E64D
:10003000B0E0E4E6F3E003C0C89531960D92A03637
:10004000B107D1F710E0A0E6B0E001C01D92A036E4
:10005000B107E1F702D085C1D3CF1F9380E682BB01
:1000600080E281BB86EF87BB0ED189E190E0CAD0E8
:1000700080ECC2D023D080E93AD080E038D061D083
:1000800080ECBAD01BD080E932D084E430D08BE948
:100090002ED057D013D081E92AD081E06AD0182F12
:1000A00081E067D081E065D080E063D04AD0812FC5
:1000B0009927C4D086E190E0A5D0E2CF8E98969A99
:1000C00085E090E0A0E0B0E08A95F1F7959A85E0B0
:1000D00090E0A0E0B0E08A95F1F796988E9A85E0DE
:1000E00090E0A0E0B0E08A95F1F79598089598E047
:1000F00025E030E040E050E087FF03C08E98969AFC
:1001000002C096988E9A2A95F1F7959A2A95F1F75A
:100110009598915011F0880FEFCF8E98969A85E0C0
:1001200090E0A0E0B0E08A95F1F7959A85E090E044
:10013000A0E0B0E08A95F1F780B395988074992794
:10014000089596988E9A85E090E0A0E0B0E08A95B8
:10015000F1F7959A85E090E0A0E0B0E08A95F1F79C
:100160008E98969A85E090E0A0E0B0E08A95F1F74D
:1001700008958E98969A98E060E025E030E040E09F
:1001800050E02A95F1F7959A2A95F1F7660F86992E
:100190006F5F95989150A9F7813019F496988E9ACF
:1001A00002C08E98969A85E090E0A0E0B0E08A9533
:1001B000F1F7959A85E090E0A0E0B0E08A95F1F73C
:1001C0009598862F9927089598B39F708295807F80
:1001D000982B98BBC19A0000C19808951F93182FBF
:1001E00082958F70F1DF812FEFDF88E790E00000CC
:1001F0008A95E9F71F910895C298F0DF0895C29A91
:10020000EDDF0895CF93DF93D92FC82F01C0F7DF1B
:10021000FD2FEC2F2196C895802D8823C1F7DF9103
:10022000CF910895CF93DF93D92FC82F01C0E7DF77
:1002300089918823E1F7DF91CF910895CF93DF93E0
:10024000CDB7DEB727970FB6F894DEBF0FBECDBF90
:100250004AE050E06C2F7D2F6F5F7F4F37D0E2DF99
:1002600027960FB6F894DEBF0FBECDBFDF91CF91BA
:10027000089582E0C1DF80E31FD0089581E0BCDFF4
:1002800080E31AD0089586E917D0C29880E39CDFF6
:1002900089E212D080E398DF82E00ED080E294DF22
:1002A00082E00AD088E2A8DF88E0A6DFE7DF86E008
:1002B000A3DF8EE0A1DF089524E630E004C0000053
:1002C0002A95E9F781508823D1F70895E62FF72F73
:1002D0002E2F3F2FE8944230C4F04532B4F44A3018
:1002E00029F497FB1EF4909581959F4F642F7727F3
:1002F00022D0805D8A330CF0895D8193862F972F01
:100300000097A1F716F45DE251931082822F932F8C
:1003100000C0A82FB92FE82FF92F672F71917723ED
:10032000E1F7329704C07C916D9370836291AE17B0
:10033000BF07C8F30895AA1BBB1B51E107C0AA1F42
:10034000BB1FA617B70710F0A61BB70B881F991F76
:100350005A95A9F780959095682F792F8A2F9B2F12
:040360000895FFCF2E
:00000001FF
