:1000000016C02FC02EC02DC02CC02BC02AC029C0A6
:1000100028C027C026C04C616E63756368207A20B3
:10002000464C4153486100576974616A21001124AC
:100030001FBECFEDCDBF10E0A0E6B0E0EAE8F1E0F2
:1000400003C0C89531960D92A036B107D1F710E0E4
:10005000A0E6B0E001C01D92A036B107E1F77AD06A
:1000600093C0CECF24E630E004C000002A95E9F723
:1000700081508823D1F7089598B39F708295807F2F
:10008000982B98BBC19A0000C19808951F93182F10
:1000900082958F70F1DF812FEFDF88E790E000001D
:1000A0008A95E9F71F910895C298F0DF0895C29AE2
:1000B000EDDF089581E0F8DF20E384E690E00000C2
:1000C0008A95E9F72150D9F7089526E984E690E06A
:1000D00000008A95E9F72150D9F7C29880E3CCDF78
:1000E00029E284E690E000008A95E9F72150D9F7EB
:1000F00080E3C2DF84E690E000008A95E9F784E6B9
:1001000090E000008A95E9F780E2B6DF84E690E0AF
:1001100000008A95E9F784E690E000008A95E9F707
:1001200088E2C2DF88E0C0DFC5DF86E0BDDF8EE0A9
:10013000BBDF0895CF93DF93D92FC82F01C0B7DF5E
:10014000FD2FEC2F2196C895802D8823C1F7DF91D4
:10015000CF91089586EF87BBB8DFACDF87E290E0F0
:10016000E9DF80ECA1DF86E190E0E4DF80E090E071
:10017000089582E099DF20E384E690E000008A950C
:0A018000E9F72150D9F70895FFCFE9
:00000001FF
