:100000000AC023C022C021C020C01FC01EC01DC006
:100010001CC01BC01AC011241FBECFEDCDBF10E005
:10002000A0E6B0E0ECEAF1E003C0C89531960D928D
:10003000A036B107D1F710E0A0E6B0E001C01D92F4
:10004000A036B107E1F76AD0B0C0DACF24E630E0DD
:1000500004C000002A95E9F781508823D1F708955C
:1000600098B39F708295807F982B98BBC19A0000AF
:10007000C19808951F93182F82958F70F1DF812FFB
:10008000EFDF88E790E000008A95E9F71F91089577
:10009000C298F0DF0895C29AEDDF089581E0F8DF9D
:1000A00020E384E690E000008A95E9F72150D9F733
:1000B000089526E984E690E000008A95E9F721504A
:1000C000D9F7C29880E3CCDF29E284E690E0000013
:1000D0008A95E9F72150D9F780E3C2DF84E690E002
:1000E00000008A95E9F784E690E000008A95E9F738
:1000F00080E2B6DF84E690E000008A95E9F784E6C6
:1001000090E000008A95E9F788E2C2DF88E0C0DF6E
:10011000C5DF86E0BDDF8EE0BBDF0895EF92FF9282
:100120000F931F93CF93DF9386EF87BBC2DFB6DFBA
:100130008FE4B1DF8CE4AFDF85E4ADDF8BE4ABDFD0
:10014000EE24FF240FEF1FEF912F802F0197F1F77F
:100150008CE19EDF912F802F0197F1F70894E11C2D
:10016000F11C9CE0E916F1046CF3C0E0D0E00FEF65
:100170001FEF912F802F0197F1F788E189DF912FF1
:10018000802F0197F1F72196EE24FF24CC30D10582
:1001900071F7D8CF82E07CDF20E384E690E00000B6
:0C01A0008A95E9F72150D9F70895FFCFA8
:00000001FF
