:1000000014C02DC02CC02BC02AC029C0B3C027C02B
:1000100026C025C024C0BFDFEFF7C0F9A4B0999275
:1000200082F880908883C6A1868E11241FBECFEDF2
:10003000CDBF10E0A0E6B0E0E6E1F2E003C0C89575
:1000400031960D92A036B107D1F710E0A0E6B0E0EE
:1000500001C01D92A836B107E1F779D0DBC0D0CF3F
:100060000F931F93CF93DF93282F392F87E22031EF
:10007000380750F08FEB8093640080936500809385
:100080006600809367001EC003E010E0C7E6D0E082
:10009000932F822F6AE070E0A7D0F92FE82FE65E59
:1000A000FF4FC895E02DE8832197932F822F6AE0B8
:1000B00070E09AD0262F372F015010408FEF0F3F5E
:1000C000180731F7DF91CF911F910F9108951F937A
:1000D000CF93DF93182FD72FC62F80B38123E9F456
:1000E00086E080936300809163008823E1F780B30A
:1000F000812399F4EC2FFD2F099588E78093630005
:1001000080916300882331F486E080936300EC2FB4
:10011000FD2F099580B3812399F3DF91CF911F9132
:100120000895809160009091610001969093610024
:100130008093600095DF0895809160009091610048
:10014000019790936100809360008ADF08958FEF9C
:1001500087BB88E781BB83E082BB83BF82E089BF26
:10016000789461E970E081E0B2DF6CE970E082E0F0
:10017000AEDFF7CF1F920F920FB60F9211248F931D
:100180009F93AF93BF93EF93FF9380E882BF82B3B7
:10019000886782BB90916200E92FFF27AE2FBF2FA7
:1001A000AC59BF4F8C9188BB82B3EA5EFF4FC895B4
:1001B000E02D8E2382BB9F5F90936200943048F0C5
:1001C0001092620080916300882319F0815080931F
:1001D0006300FF91EF91BF91AF919F918F910F902D
:1001E0000FBE0F901F901895AA1BBB1B51E107C0B3
:1001F000AA1FBB1FA617B70710F0A61BB70B881FB7
:10020000991F5A95A9F780959095682F792F8A2F75
:060210009B2F0895FFCFB3
:00000001FF
