:100000000C94B7000C94D4000C94D4000C94D4003D
:100010000C94D4000C94D4000C94D4000C94D40010
:100020000C94D4000C94D4000C94D4000C94D40000
:100030000C94D4000C94D4000C94D4000C94D400F0
:100040000C94D4000C94D4000C94D4000C94D400E0
:100050000C94D4000C94D4000C94D4000C94D400D0
:100060000C94D4000C94D4000C94D4000C94D400C0
:100070005332202D20005331202D2000456E676C17
:100080006973680057656C636F6D6520696E202029
:1000900020202020456E676C697368205665727356
:1000A000696F6E0000000E010F110F026102040E55
:1000B0001010110E006300000E111F100E02650CCF
:1000C0000406040C040E006C020416191111110030
:1000D0006E02040E1111110E006F02040E100E01BB
:1000E0001E007302041F0204081F007A04001F028E
:1000F00004081F007A0E11111F1111110241020E86
:1001000015101010110E431F10101E10101F024565
:100110001010141810101F004C021511191513118E
:10012000114E020E15111111110E4F020F14100E67
:1001300001011E53021F05020408101F5A041F016B
:10014000020408101F5A506F6C736B690057697472
:10015000616A207720776572736A690A20706F6C14
:10016000736B69656A007C00840046014D011124AF
:100170001FBECFEFD4E0DEBFCDBF11E0A0E0B1E005
:10018000E6E3F6E002C005900D92A231B107D9F77F
:1001900011E0A2E1B1E001C01D92AD33B107E1F77A
:1001A0000E94D6000C941A030C9400000F931F9326
:1001B0008CE381BB8FEC82BB85E087B90E948F0204
:1001C00084E00E947F010E949D01BC0186E790E0CF
:1001D0000E94EF020E949D018C0180E00E94C002FB
:1001E000B8010E94EF0280E10E9488010E949D01F7
:1001F000BC0180E790E00E94EF020E949D018C010B
:1002000081E00E94C002B8010E94EF020E947302C6
:10021000E0E6FAEE289908C0CF010197F1F7289996
:1002200003C081E090E009C02A99F4CFCF01019783
:10023000F1F72A99EFCF82E090E081500E94B90255
:100240000E9484020E949D018C0181E00E94DA02DA
:10025000B8010E94EF020E94730280E090E01F91BB
:100260000F910895939A929881E08A95F1F717BAC1
:10027000949A82E08A95F1F786B394989927089525
:100280000E94320187FDFCCF08959FEF97BB88BB8A
:10029000949A81E08A95F1F7949808951F93182F06
:1002A0000E9440019398929A81E08A95F1F7812FFC
:1002B0000E9445011F9108951F93182F0E9440012D
:1002C00082B3837F82BB81E08A95F1F7812F0E9400
:1002D00045011F910895982F80913201803210F0CE
:1002E0001092320180913201E82FFF27EE5EFE4F1F
:1002F00090838F5F8093320180E090E00895809337
:100300003B01089580913B0188600E945C01089543
:1003100080933201089590913201892F82958F70D8
:1003200019F420E030E002C020E430E09F70920F2A
:10033000892F80680E945C01089580E091E0089513
:10034000FF920F931F93CF93DF930E94D002892BCC
:1003500021F180E40E945C0103E311E0F801808157
:100360008F3FD9F00E94D002F801308129E0329FFE
:10037000E0011124C80FD91FFF24FE012196E4914A
:100380008E2F0E944E01F394F8E0FF16B1F70F5F35
:100390001F4F81E00B33180709F7DF91CF911F91B1
:1003A0000F91FF9008951F93182F0E94D002892B60
:1003B00019F480E290E01AC080E090E0E3E3F1E01D
:1003C00020812F3F39F0211789F00196319688302E
:1003D0009105B1F70E94D002E9E01E9FF0011124BF
:1003E000E80FF91F3896E4918E2F99271F910895F1
:1003F000DF92EF92FF920F931F93CF93DF9382E1EF
:10040000E82E81E0F82E00E010E0002319F080E4EF
:1004100090E002C080E090E080680E945C01E7010B
:10042000DD248991982F9058903218F4892F0E94DA
:10043000D3010E944E01D39480E1D81691F780E158
:1004400090E0E80EF91E0F5F1F4F02301105E9F62C
:10045000DF91CF911F910F91FF90EF90DF90089562
:10046000EF92FF920F931F93CF93DF93CDB7DEB739
:1004700021970FB6F894DEBF0FBECDBF48E050E025
:100480006FEF70E083E391E00E94E80202E111E087
:1004900090E0F80181918F018058803288F4E82E35
:1004A000FF248E2D99830E94D3019981883040F0DA
:1004B000983028F4E92FFF27ED5CFE4FE0829F5F24
:1004C000F1E002331F0729F7892F992721960FB6EC
:1004D000F894DEBF0FBECDBFDF91CF911F910F917A
:1004E000FF90EF9008950E9430020E94A001809139
:1004F0003B01847088600E945C010E94F8010E94A8
:100500008B010E94820108951092320140E250E076
:1005100060E270E082E191E00E94E80208950E94AA
:10052000840282B3837F82BB81E08A95F1F780E306
:100530000E94450188E991E20197F1F780E30E946A
:10054000450180E08A95F1F780E30E94450188E348
:100550000E945C0188E00E945C0181E00E945C01D5
:1005600086E00E945C010E944001089582E090E0D4
:10057000089580933C01089580913C019927089546
:10058000833018F080E090E00895E82FFF27EE0F09
:10059000FF1FEE0FFF1FEA59FE4F859194910895BA
:1005A000E0913C01FF27EE0FFF1FE25FFE4F8591B8
:1005B00094910895E0913C01FF27EE0FFF1FE80F93
:1005C000F11DEE0FFF1FEA59FE4F8591949108959A
:1005D000DC0101C06D9341505040E0F70895EF9267
:1005E000FF920F931F93CF93DF93EC018B01FB01DD
:1005F000838181FD04C09FEFE92EF92E13C0EE2404
:10060000FF240CC0F80120853185B801F901099556
:10061000892B19F08FEFE82EF82E2196FE01849198
:10062000882381F7C701DF91CF911F910F91FF9030
:06063000EF900895FFCFDA
:1006360000000002000000006B0100000000000046
:02064600A4000E
:00000001FF
