:1000000012C02BC02AC029C028C027C026C025C0C6
:1000100024C023C022C021C020C01FC01EC01DC0DC
:100020001CC01BC01AC011241FBECFEDCDBF10E0F5
:10003000A0E6B0E0E6EBF7E003C0C89531960D927C
:10004000A036B107D1F710E0A0E6B0E001C01D92E4
:10005000A036B107E1F7C2D1ADC3D2CFCF93DF93C2
:10006000682F772784EF91E07CD31EC0C19A84EA81
:1000700096E0F92FE82F3197F1F7C1980197F1F742
:100080006C2F7D2F882777FD8095982F12D3D7FF6F
:1000900005C020E030E040E857E4ACD22AE939E975
:1000A00049ED5FE3A6D2E8D2D72FC62F672BF1F632
:1000B000DF91CF910895CF93DF93682F772784EF57
:1000C00091E04FD31EC0C19A80EF95E0F92FE82F41
:1000D0003197F1F7C1980197F1F76C2F7D2F8827A1
:1000E00077FD8095982FE5D2D7FF05C020E030E05E
:1000F00040E857E47FD22CE53FE842EC5FE379D259
:10010000BBD2D72FC62F672BF1F6DF91CF91089581
:10011000CF93DF93682F772784EF91E022D31EC01F
:10012000C19A86EF94E0F92FE82F3197F1F7C19843
:100130000197F1F76C2F7D2F882777FD8095982FF9
:10014000B8D2D7FF05C020E030E040E857E452D2F3
:100150002CE53FE842EA5FE34CD28ED2D72FC62F80
:10016000672BF1F6DF91CF910895CF93DF93682F3E
:10017000772784EF91E0F5D21EC0C19A8AE694E019
:10018000F92FE82F3197F1F7C1980197F1F76C2F0C
:100190007D2F882777FD8095982F8BD2D7FF05C0BC
:1001A00020E030E040E857E425D227ED33EA40E98B
:1001B0005FE31FD261D2D72FC62F672BF1F6DF91F5
:1001C000CF910895CF93DF93682F772784EF91E045
:1001D000C8D21EC0C19A82EF93E0F92FE82F319761
:1001E000F1F7C1980197F1F76C2F7D2F882777FDE4
:1001F0008095982F5ED2D7FF05C020E030E040E820
:1002000057E4F8D12EEA37E441E85FE3F2D134D283
:10021000D72FC62F672BF1F6DF91CF910895CF939B
:10022000DF93682F772784EF91E09BD21EC0C19A9D
:1002300082E593E0F92FE82F3197F1F7C198019704
:10024000F1F76C2F7D2F882777FD8095982F31D27D
:10025000D7FF05C020E030E040E857E4CBD12AE9E1
:1002600039E949E55FE3C5D107D2D72FC62F672B00
:10027000F1F6DF91CF910895CF93DF93682F772721
:1002800084EF91E06ED21EC0C19A88EF92E0F92F00
:10029000E82F3197F1F7C1980197F1F76C2F7D2F77
:1002A000882777FD8095982F04D2D7FF05C020E0DE
:1002B00030E040E857E49ED12CE53FE842E45FE3BC
:1002C00098D1DAD1D72FC62F672BF1F6DF91CF91D6
:1002D0000895CF93DF93682F772784EF91E041D281
:1002E0001CC086E797E0F92FE82F3197F1F70197C7
:1002F000F1F76C2F7D2F882777FD8095982FD9D126
:10030000D7FF05C020E030E040E857E473D121EE8C
:100310003AE744EF5FE36DD1AFD1D72FC62F672BFC
:1003200001F7DF91CF910895CF93DF93682F77275F
:1003300084EF91E016D21EC0C19A86E495E0F92FB1
:10034000E82F3197F1F7C1980197F1F76C2F7D2FC6
:10035000882777FD8095982FACD1D7FF05C020E086
:1003600030E040E857E446D12EEA37E441E05FE36D
:1003700040D182D1D72FC62F672BF1F6DF91CF91D5
:100380000895CF93DF93682F772784EF91E0E9D129
:100390001EC0C19A84EE97E0F92FE82F3197F1F74C
:1003A000C1980197F1F76C2F7D2F882777FD8095F5
:1003B000982F7FD1D7FF05C020E030E040E857E418
:1003C00019D12EEA37E441E85FE313D155D1D72F95
:1003D000C62F672BF1F6DF91CF9108958CEF81BB8B
:1003E00083E082BB82E088BB87BB84E091DE84E04F
:1003F000BCDE83E060DE83E06CDF84E089DE84E0E5
:10040000B4DE83E00CDF83E064DF84E081DE88E03B
:100410008BDF88E050DE83E021DE83E05ADF84E07A
:1004200077DE81E048DE82E046DE82E052DF83E074
:1004300050DF84E06DDE84E098DE83E03CDE83E024
:1004400048DF84E065DE84E090DE83E0E8DE83E080
:1004500040DF84E05DDE88E067DF88E02CDE83E05B
:10046000FDDD83E036DF84E080DE81E024DE82E0B3
:1004700022DE82E02EDF83E02CDF81E02ADF81E0D4
:1004800028DF81E026DF88E07CDF88E014DE88E07A
:100490003FDE84E010DE81E0EFDE88E0EDDE88E024
:1004A00070DF88E008DE88E033DE84E004DE81E08F
:1004B000B6DE82E0B4DE88E064DF88E0FCDD88E060
:1004C00027DE88E0F8DD88E0AADE88E07BDE84E0D5
:1004D0002BDF88E0C3DD81E048DE84E0809BC298AA
:1004E00088BBFCCFCF93DF93682F772784EF91E011
:1004F00038D11EC0C19A86E797E0F92FE82F3197CF
:10050000F1F7C1980197F1F76C2F7D2F882777FDC0
:100510008095982FCED0D7FF05C020E030E040E88E
:1005200057E468D021EE3AE744EF5FE362D0A4D00D
:10053000D72FC62F672BF1F6DF91CF910895CF9378
:10054000DF93682F772784EF91E00BD11EC0C19A0B
:1005500086E995E0F92FE82F3197F1F7C1980197D7
:10056000F1F76C2F7D2F882777FD8095982FA1D0EC
:10057000D7FF05C020E030E040E857E43BD02DE352
:100580003AE047EB5FE335D077D0D72FC62F672B04
:10059000F1F6DF91CF910895CF93DF93682F7727FE
:1005A00084EF91E0DED01EC0C19A8BEB93E0F92F6F
:1005B000E82F3197F1F7C1980197F1F76C2F7D2F54
:1005C000882777FD8095982F74D0D7FF05C020E04D
:1005D00030E040E857E40ED021EE3AE744E75FE32D
:1005E00008D04AD0D72FC62F672BF1F6DF91CF91D5
:1005F00008955058192E84D001D06AC0BA176207E6
:10060000730784079507B1F188F40EF410940B2E4C
:10061000BA2FA02D062E622F202D072E732F302DDE
:10062000082E842F402D092E952F502DFF2755235E
:10063000B9F0591B49F0573E98F0469537952795E4
:10064000A795F0405395C9F776F0BA0F621F731F54
:10065000841F30F4879577956795B795F04093950B
:1006600017FA0F2E0895BF1BBB27BA0B620B730B33
:10067000840BF6CFDEF670C097FB4ED09F3738F074
:10068000FEE9F91B982F872F762F6B2F05C061C0CD
:100690009695879577956795F150D0F73EF49095AC
:1006A0008095709561957F4F8F4F9F4F0895E89487
:1006B00003C097FB0EF4F3DFB62F672F782F892F37
:1006C0009EE9002405C09A95BB0F661F771F881FFF
:1006D00011249923A1F08823B2F79F3F59F0BB0F53
:1006E00048F421F4002011F460FF04C06F5F7F4FD5
:1006F0008F4F9F4F881F9795879597F9089529C029
:10070000052E092607FA440F551F5F3F79F0AA27E7
:10071000A51708F051E04795880F991F9F3F31F0CA
:10072000BB27B91708F091E0879508959F919F9195
:10073000112414C097FB880F991F9F3F31F0BB27EE
:10074000B91708F091E0879508959F919F91112422
:1007500005C0662777278827992708959FEF80ECA3
:10076000089597FB092E07260AD077FD04D00CD0F8
:1007700006D000201AF4709561957F4F0895F6F722
:10078000909581959F4F0895AA1BBB1B51E107C00F
:10079000AA1FBB1FA617B70710F0A61BB70B881F11
:1007A000991F5A95A9F780959095682F792F8A2FD0
:0607B0009B2F0895FFCF0E
:00000001FF
