:100000000C94B9000C94D6000C94D6000C94D60035
:100010000C94D6000C94D6000C94D6000C94D60008
:100020000C94D6000C94D6000C94D6000C94D600F8
:100030000C94D6000C94D6000C94D6000C94D600E8
:100040000C94D6000C94D6000C94D6000C94D600D8
:100050000C94D6000C94D6000C94D6000C94D600C8
:100060000C94D6000C94D6000C94D6000C94D600B8
:10007000456E676C6973680057656C636F6D6520CA
:10008000696E202020202020456E676C69736820EF
:1000900056657273696F6E0000000E010F110F023A
:1000A0006102040E1010110E006300000E111F10EB
:1000B0000E02650C0406040C040E006C02041619F2
:1000C000111111006E02040E1111110E006F0204C5
:1000D0000E100E011E007302041F0204081F007A96
:1000E00004001F0204081F007A0E11111F111111C4
:1000F0000241020E15101010110E431F10101E1099
:10010000101F02451010141810101F004C0215117A
:1001100019151311114E020E15111111110E4F0266
:100120000F14100E01011E53021F05020408101FB8
:100130005A041F01020408101F5A506F6C736B6938
:1001400000576974616A207720776572736A690A5B
:1001500020706F6C736B69656A0000009800700016
:1001600078003A0141015332202D20005331202DD7
:10017000200011241FBECFEFD4E0DEBFCDBF11E0C1
:10018000A0E0B1E0E4E1F6E002C005900D92AE30EF
:10019000B107D9F711E0AEE0B1E001C01D92A9337B
:1001A000B107E1F70E94D8000C9409030C940000F9
:1001B0000E949002939A929881E08A95F1F717BA7B
:1001C000949A82E08A95F1F786B3949899270895D6
:1001D0000E94DA0087FDFCCF08959FEF97BB88BB94
:1001E000949A81E08A95F1F7949808951F93182FB7
:1001F0000E94E8009398929A81E08A95F1F7812F06
:100200000E94ED001F9108951F93182F0E94E8008F
:1002100082B3837F82BB81E08A95F1F7812F0E94B0
:10022000ED001F910895982F80912E01803210F0DB
:1002300010922E0180912E01E82FFF27E25FFE4FE2
:1002400090838F5F80932E0180E090E008958093EB
:10025000370108958091370188600E940401089554
:1002600080932E01089590912E01892F82958F7091
:1002700019F420E030E002C020E430E09F70920FDB
:10028000892F80680E940401089580E091E008951C
:10029000FF920F931F93CF93DF930E947802892BD5
:1002A00021F180E40E9404010FE211E0F801808155
:1002B0008F3FD9F00E947802F801308129E0329F07
:1002C000E0011124C80FD91FFF24FE012196E491FB
:1002D0008E2F0E94F600F394F8E0FF16B1F70F5F3F
:1002E0001F4F81E00733180709F7DF91CF911F9166
:1002F0000F91FF9008951F93182F0E947802892B69
:1003000019F480E290E01AC080E090E0EFE2F1E0C2
:1003100020812F3F39F0211789F0019631968830DE
:100320009105B1F70E947802E9E01E9FF0011124C7
:10033000E80FF91F3896E4918E2F99271F910895A1
:10034000DF92EF92FF920F931F93CF93DF938EE094
:10035000E82E81E0F82E00E010E0002319F080E4A0
:1003600090E002C080E090E080680E940401E70114
:10037000DD248991982F9058903218F4892F0E948B
:100380007B010E94F600D39480E1D81691F780E1BA
:1003900090E0E80EF91E0F5F1F4F02301105E9F6DD
:1003A000DF91CF911F910F91FF90EF90DF90089513
:1003B000EF92FF920F931F93CF93DF93CDB7DEB7EA
:1003C00021970FB6F894DEBF0FBECDBF48E050E0D6
:1003D0006FEF70E08FE291E00E94D7020EE011E033
:1003E00090E0F80181918F018058803288F4E82EE6
:1003F000FF248E2D99830E947B019981883040F0E3
:10040000983028F4E92FFF27E15DFE4FE0829F5FDF
:10041000F1E00E321F0729F7892F992721960FB691
:10042000F894DEBF0FBECDBFDF91CF911F910F912A
:10043000FF90EF9008950E94D8010E94480180919A
:100440003701847088600E9404010E94A0010E940C
:1004500033010E942A01089510922E0140E250E0DB
:1004600060E270E08EE091E00E94D70208950E9461
:100470002C0282B3837F82BB81E08A95F1F780E30F
:100480000E94ED0088E991E20197F1F780E30E9474
:10049000ED0080E08A95F1F780E30E94ED0088E3AB
:1004A0000E94040188E00E94040181E00E9404018E
:1004B00086E00E9404010E94E800089582E090E036
:1004C00008958093380108958091380199270895FF
:1004D000833018F080E090E00895E82FFF27EE0FBA
:1004E000FF1FEE0FFF1FE25AFE4F85919491089572
:1004F000E0913801FF27EE0FFF1FE65AFE4F85916E
:1005000094910895E0913801FF27EE0FFF1FE80F47
:10051000F11DEE0FFF1FE25AFE4F85919491089551
:100520008CE381BB8FEC82BB85E087B90E943702E8
:1005300084E00E9427018FE087BD8EE482BD80E1C8
:1005400089BF78940E944501BC018CE691E00E942D
:10055000DE020E9445018C0180E00E946802B80121
:100560000E94DE0280E10E9430010E944501BC0130
:1005700086E691E00E94DE020E9445018C0181E046
:100580000E946802B8010E94DE020E941B020E94C3
:10059000C9020E942C020E9445018C0181E00E9448
:1005A0008202B8010E94DE020E941B02FFCFDC0122
:1005B00001C06D9341505040E0F70895EF92FF92D3
:1005C0000F931F93CF93DF93EC018B01FB0183818A
:1005D00081FD04C09FEFE92EF92E13C0EE24FF2405
:1005E0000CC0F80120853185B801F9010995892BE6
:1005F00019F08FEFE82EF82E2196FE0184918823C2
:1006000081F7C701DF91CF911F910F91FF90EF907C
:040610000895FFCF7B
:0E0614000000000200000000130100000000C2
:00000001FF
