:100000000C9438000C9455000C9455000C94550039
:100010000C9455000C9455000C9455000C9455000C
:100020000C9455000C9455000C9455000C945500FC
:100030000C9455000C9455000C9455000C945500EC
:100040000C9455000C9455000C9455000C945500DC
:100050000C9455000C9455000C9455000C945500CC
:100060000C9455000C9455000C9455000C945500BC
:1000700011241FBECFEFD4E0DEBFCDBF11E0A0E062
:10008000B1E0EEEBF0E002C005900D92A030B107B8
:10009000D9F711E0A0E0B1E001C01D92A030B10796
:1000A000E1F70E9457000C945E000C9400008FEF63
:0E00B00081BB87BB18BA80E090E00895FFCFB7
:00000001FF
