:100000000C9455000C9472000C9472000C947200C5
:100010000C9472000C9472000C9472000C94720098
:100020000C9472000C9472000C9472000C94720088
:100030000C9472000C9472000C9472000C94720078
:100040000C9472000C9472000C9472000C94720068
:100050000C9472000C9472000C9472000C94720058
:100060000C9472000C9472000C9472000C94720048
:100070006128252564293D25640D0A6128252578F8
:10008000293D25780D0A6128252558293D25580D3B
:100090000A622825252378293D2523780D0A622820
:1000A000252530293D25300D0A0011241FBECFEF34
:1000B000D4E0DEBFCDBF11E0A0E0B1E0E2E0FBE0C4
:1000C00002C005900D92A630B107D9F711E0A6E065
:1000D000B1E001C01D92A031B107E1F70E947400A8
:1000E0000C9480050C94000010BC87E689B986E862
:1000F00080BD88E18AB91BB867EA70E081EA90E0C8
:100100000E94AC008FEF90E09F938F939F938F930B
:1001100082ED94E09F938F939F938F939F938F9300
:1001200080E790E09F938F930E94FC008DB79EB76D
:100130000C960FB6F8949EBF0FBE8DBF80E090E086
:1001400008955D9BFECF8CB980E090E008955F9BA1
:10015000FECF8CB199270895EF92FF920F931F93D2
:10016000CF93DF938C017B01892B11F4672BD1F1A5
:100170006EE070E081E090E00E94F603FC010097E1
:1001800089F1DC0180E88383E114F10471F0F386E6
:10019000E28681E883838091060190910701892B93
:1001A00021F4F0930701E093060101151105E1F038
:1001B00011870087838182608383809108019091F9
:1001C0000901892B89F4F0930901E09308018091DA
:1001D0000A0190910B01892B39F4F0930B01E09304
:1001E0000A0102C0A0E0B0E0CD01DF91CF911F91E4
:1001F0000F91FF90EF900895CF93DF93CDB7DEB7C7
:1002000022970FB6F894DEBF0FBECDBFFE01379622
:1002100061917191FA83E983E0910801F0910901FC
:1002200083818860838349815A81809108019091FC
:1002300009010E942B01E0910801F091090123813D
:10024000277F238322960FB6F894DEBF0FBECDBF63
:10025000DF91CF9108952F923F924F925F926F92CC
:100260007F928F929F92AF92BF92CF92DF92EF9246
:10027000FF920F931F93CF93DF93CDB7DEB76497B1
:100280000FB6F894DEBF0FBECDBFCC24DD247601BF
:100290001C017C8B6B8B2A01FC01178216828381E7
:1002A00081FD03C08FEF9FEF88C2AA24BB2472C2D6
:1002B000A0FE57C28A8980538A30E8F4FA89F03365
:1002C00041F42D85222329F4A3FC03C080E091E0B2
:1002D0006FC08AE0ED85E802C0011124FA89F80FA9
:1002E000F053FD87F7FF02C02FE72D87A3FC4CC218
:1002F0003D853E8749C2C50188709070A3FE05C048
:10030000ED85EE2311F4F1E0FD872A89283624F5E6
:1003100025360CF05BC0233509F480C024358CF4FD
:100320002B32C1F12C3234F42032C1F1233209F0E6
:100330000DC23CC03A893D32B1F13E3209F006C2ED
:100340003AC08A89833609F449C084360CF081C0EA
:10035000883509F0FBC11BC0EA89E03709F4A3C066
:10036000E13744F4EC3669F1EF3671F0E93609F023
:10037000EDC16FC0FA89F53709F49DC0F83739F03F
:10038000F33709F0E3C134C028E0298B94C030E191
:10039000398B91C080E190E0A82AB92AE0E2F0E030
:1003A000AE2ABF2AF1C120E830E00DC080E490E021
:1003B000A82AB92AE9C1E8E0F0E0AE2ABF2A1D86E2
:1003C000E3C124E030E0A22AB32ADEC14FE3C42E09
:1003D0003E8531503E8783E68A8B44C1F201C0805E
:1003E000FE85F150FE8722E030E0420E531E3AC1F6
:1003F000F201C080D180892B49F0FD856F2F7727CE
:1004000067FD7095C6010E94260519C0F60101908E
:100410000020E9F73197EC19E98B12C0F201C08096
:10042000D180892B49F0FD856F2F772767FD709567
:10043000C6010E94140503C0C6010E940B05898BEA
:1004400022E030E0420E531E3E858989381B3E87EC
:1004500009C1A2FE08C0F20180819181A281B3810D
:1004600024E030E009C0F20180819181AA2797FD44
:10047000A095BA2F22E030E0420E531E6C017D01A0
:10048000B7FF0CC082E090E0A82AB92AF094E0946B
:10049000D094C094C11CD11CE11CF11CEFEBFFEF08
:1004A000AE22BF2221C020E430E0A22AB32A38E7DE
:1004B0003A8B80E1898BA2FE08C0F2018081918194
:1004C000A281B38124E030E007C0F20180819181F4
:1004D000AA27BB2722E030E0420E531E6C017D01AB
:1004E0008FEC9FEFA822B92287017601FE01319699
:1004F000F88BEF87F9896F2E772488249924C80117
:10050000B701A40193010E945E056A3024F02A8994
:10051000620F615201C0605DEF85F8896193F88BCD
:10052000EF87C801B701A40193010E945E0579011C
:100530008A01211531054105510509F7CC24DD2437
:100540007601CE010196CF84C81AC50182739070DE
:10055000892B19F0FE85F150FE87A6FE09C0298976
:10056000203111F482E001C081E03E85381B3E87D6
:1005700038E0832E912C8A209B20A3FE1BC08D8502
:10058000282F332727FD30958C2D99278217930725
:1005900054F0E7EFFFEFAE22BF2228E0822E912C2D
:1005A0008A209B2007C0FD85FC19FD872E852F1B07
:1005B0002E8703C03E853C193E87C5018078917027
:1005C000892B69F48E8506C0B10180E290E00E941B
:1005D0003105812F182F11501816B4F31E87A1FE74
:1005E00004C0B1018DE290E00BC0A4FE04C0B101D3
:1005F0008BE290E005C0A5FE05C0B10180E290E06D
:100600000E943105A6FE10C0B10180E390E00E9477
:1006100031058989803141F4B101EA898E2F99270A
:1006200087FD90950E943105B0FE0DC08E8506C0F5
:10063000B10180E390E00E943105812F182F115005
:100640001816B4F31E87892869F02D8506C0B101FC
:1006500080E390E00E943105212F122F11501216D5
:10066000B4F31D8790E8692E712C6A207B20A7FCCB
:100670000DC08E8506C0B10180E290E00E94310578
:10068000812F182F11501816B4F31E87FA89F336EC
:1006900041F4B1018C2D992787FD90950E94310579
:1006A00045C02A892337B1F446015601198909C08A
:1006B000F50181915F01B101992787FD90950E9415
:1006C00031051150A8F76401F989CF0ED11C2FEF25
:1006D000298B2CC03A89333519F00F8518891FC032
:1006E00046018601B98808C0F8018491B1019927B3
:1006F0000E9431050F5F1F4FBA94FFEFBF16A1F79D
:1007000064012989C20ED11CF98B10C0F8018291B5
:100710008F01B101992787FD90950E943105CE0187
:1007200001960817190791F7188B0F876728B1F002
:100730008E8506C0B10180E290E00E943105812FD4
:10074000182F11501816B4F31E8708C0B101FA898A
:100750008F2F992787FD90950E943105AA24BB24ED
:1007600013C02A89253241F43AE0398B1E861D8652
:1007700081E0A82EB12C08C0B101EA898E2F9927FB
:1007800087FD90950E9431052B893C892F5F3F4F53
:100790003C8B2B8BF101838183FF04C0EB89FC89A7
:1007A000F49103C0EB89FC89F081FA8B2A8922231A
:1007B00009F07ECDF1018681978164960FB6F89499
:1007C000DEBF0FBECDBFDF91CF911F910F91FF9084
:1007D000EF90DF90CF90BF90AF909F908F907F90E1
:1007E0006F905F904F903F902F9008950F931F93BD
:1007F000CF93DF93869F8001879F100D969F100DEA
:100800001124C8010E941204EC01009729F0A801EC
:1008100060E070E00E941F05CE01DF91CF911F9133
:100820000F910895CF93DF93AC01029710F442E04B
:1008300050E0A0910E01B0910F01FD01C0E0D0E0A9
:1008400020E030E020C0808191818417950769F411
:1008500082819381209719F09B838A8304C09093AF
:100860000F0180930E01CF0132C04817590738F4A9
:100870002115310519F08217930708F49C01EF0147
:100880000280F381E02D3097F1F62115310589F1D1
:10089000C901841B950B049708F4A901E0E0F0E07E
:1008A00026C08D919C91119782179307E9F4481700
:1008B000590779F4ED018A819B81309719F0938370
:1008C000828304C090930F0180930E01CD010296A4
:1008D00049C0841B950BFD01E80FF91F419351930B
:1008E00002978D939C933AC0FD01A281B38110972A
:1008F000C1F680910C0190910D01892B41F48091FA
:1009000002019091030190930D0180930C012091BD
:100910000401309105012115310541F42DB73EB791
:100920008091000190910101281B390BE0910C018D
:10093000F0910D012E1B3F0B2417350788F0CA01DB
:1009400002962817390760F0CF01840F951F029691
:1009500090930D0180930C0141935193CF0102C0FC
:1009600080E090E0DF91CF910895CF93DF930097DF
:1009700009F44EC0EC0122971B821A82A0910E014D
:10098000B0910F01109711F140E050E001C0DC017F
:10099000AC17BD0700F1BB83AA83FE012191319101
:1009A000E20FF31FEA17FB0771F42E5F3F4F8D91A3
:1009B0009C911197820F931F99838883FD018281F7
:1009C00093819B838A834115510559F4D0930F017C
:1009D000C0930E011DC0FD0182819381AD0100977E
:1009E000B1F6FA01D383C28321913191E20FF31F53
:1009F000EC17FD0769F42E5F3F4F88819981820FC4
:100A0000931FFA01918380838A819B8193838283E0
:100A1000DF91CF910895FC0105900020E9F78095C2
:100A200090958E0F9F1F0895FC01059061507040B6
:100A30000110D8F7809590958E0F9F1F0895DC01C7
:100A400001C06D9341505040E0F70895FC016150A2
:100A5000704001900110D8F7809590958E0F9F1FE0
:100A600008950F931F93CF93DF938C01EB018B813C
:100A7000992781FF1BC082FF0DC02E813F818C8191
:100A80009D812817390764F4E881F9810193F9837E
:100A9000E88306C0E885F985802F0995892B31F414
:100AA0008E819F8101969F838E8302C00FEF1FEF7F
:100AB000C801DF91CF911F910F910895A1E21A2EE5
:100AC000AA1BBB1BFD010DC0AA1FBB1FEE1FFF1FF2
:100AD000A217B307E407F50720F0A21BB30BE40B42
:100AE000F50B661F771F881F991F1A9469F7609589
:100AF0007095809590959B01AC01BD01CF01089543
:020B0000FFCF25
:060B0200200010010000BC
:00000001FF
