:100000000C9438000C9455000C9455000C94550039
:100010000C9455000C9455000C9455000C9455000C
:100020000C9455000C9455000C9455000C945500FC
:100030000C9455000C9455000C9455000C945500EC
:100040000C9455000C9455000C9455000C945500DC
:100050000C9455000C9455000C9455000C945500CC
:100060000C9455000C9455000C9455000C945500BC
:1000700011241FBECFEFD4E0DEBFCDBF11E0A0E062
:10008000B1E0E0E3FBE002C005900D92AA31B107B8
:10009000D9F711E0AAE1B1E001C01D92A432B10785
:1000A000E1F70E9457000C9496050C940000CF9342
:1000B000DF9310BC87E689B986E880BD88E18AB9FC
:1000C0001BB885E990E06BE970E00E94240180E0B4
:1000D00091E00E9485010E94A00080E90E94D10069
:1000E00080E00E94D1000E94B900CFE0D1E00E94E0
:1000F000A00081E90E94D10080E00E94FA0000D0B7
:1001000000D0EDB7FEB73196ADB7BEB71296DC930F
:10011000CE931197828313820E9470010F900F90EB
:100120000F900F900E94B900E2CF5D9BFECF8CB97B
:1001300080E090E008955F9BFECF8CB190E0089541
:10014000B998C19A89E190E0A0E0B0E08A95F1F712
:10015000C09A89E190E0A0E0B0E08A95F1F7C198FB
:10016000B99A89E190E0A0E0B0E08A95F1F7C098F3
:100170000895C198B99A89E190E0A0E0B0E08A952D
:10018000F1F7C09A89E190E0A0E0B0E08A95F1F73C
:10019000B998C19A89E190E0A0E0B0E08A95F1F7C2
:1001A000089598E029E130E040E050E087FF03C087
:1001B000B998C19A02C0C198B99A2A95F1F7C09A24
:1001C0002A95F1F7C098915011F0880FEFCFB998A8
:1001D000C19A89E190E0A0E0B0E08A95F1F7C09A79
:1001E00089E190E0A0E0B0E08A95F1F786B3C0988D
:1001F00082700895B998C19A98E060E029E130E0F2
:1002000040E050E02A95F1F7C09A2A95F1F7660F81
:10021000B1996F5FC0989150A9F7813019F4C198D6
:10022000B99A02C0B998C19A89E190E0A0E0B0E023
:100230008A95F1F7C09A89E190E0A0E0B0E08A9554
:10024000F1F7C098862F08950F931F93CF93DF93F4
:100250008C01EB01009731F46115710519F420E070
:1002600030E038C081E090E06EE070E00E949703DB
:10027000FC019C01009771F180E88383209771F065
:10028000D387C28781E8838380911A0190911B01F3
:10029000892B21F4F0931B01E0931A01011511053C
:1002A000C9F01187008783818260838380911C015C
:1002B00090911D01892B71F4F0931D01E0931C01B5
:1002C00080911E0190911F01892B21F4F0931F0151
:1002D000E0931E01C901DF91CF911F910F91089505
:1002E000A0E0B0E0E6E7F1E00C946F05FE01359682
:1002F0006191719180911C0190911D01AF010E944B
:10030000BA012096E2E00C948B050F931F93CF93D4
:10031000DF938C01E0911C01F0911D01838181FF2D
:1003200021C0C0E0D0E00DC0E0911C01F0911D01A2
:1003300020853185BF01F9010995892B11F0CFEF97
:10034000DFEFF80181918F01882371F7E0911C01A3
:10035000F0911D01208531858AE0BF01F9010995E1
:10036000892B11F0CFEFDFEFCE01DF91CF911F91FD
:100370000F910895ABE0B0E0E0ECF1E00C945F0584
:100380003C012B015A01FC0117821682838181FDF9
:1003900003C06FEF7FEFC6C19AE0892E1E0108945B
:1003A000211C311CF3012381F20123FD859123FFE0
:1003B00081912F01882309F4B2C1853239F423FDDC
:1003C000859123FF81912F01853229F490E0B301BB
:1003D0000E94D504E7CF982FFF24EE249924FFE153
:1003E000FF15D0F09B3269F09C3228F4903259F01E
:1003F000933291F40EC09D3249F0903369F441E09C
:1004000024C052E0F52A84E0F82A28C098E0F92AAE
:1004100025C0E0E1FE2A22C0F7FC29C0892F8053C5
:100420008A3070F4F6FE05C0989C902C1124980E2A
:1004300015C0E89CE02C1124E80EF0E2FF2A0EC063
:100440009E3229F4F6FC6BC140E4F42A07C09C36C6
:1004500019F450E8F52A02C0983649F4F20123FD58
:10046000959123FF91912F01992309F0B8CF892FFE
:100470008554833018F08052833038F444E050E0E3
:10048000A40EB51E5FE359830FC0933631F0933746
:1004900079F0933509F056C020C0F5018081898339
:1004A00042E050E0A40EB51E610101E010E012C070
:1004B000F501C080D180F6FC03C06FEF7FEF02C072
:1004C000692D70E042E050E0A40EB51EC6010E9406
:1004D000CA048C015FE7F52214C0F501C080D18009
:1004E000F6FC03C06FEF7FEF02C0692D70E042E0C1
:1004F00050E0A40EB51EC6010E94B8048C0150E85D
:10050000F52AF3FE07C01AC080E290E0B3010E9412
:10051000D504EA948E2D90E008171907A8F30EC0B1
:10052000F601F7FC8591F7FE81916F0190E0B30130
:100530000E94D504E110EA94015010400115110504
:1005400079F7EAC0943611F0993669F5F7FE08C0DC
:10055000F501208131814281538184E090E00AC01D
:10056000F501808191819C01442737FD4095542FEE
:1005700082E090E0A80EB91E9FE6F92257FF09C05D
:1005800050954095309521953F4F4F4F5F4FE0E894
:10059000FE2ACA01B901A1012AE030E00E9401054A
:1005A000D82ED21840C0953729F41F2D1F7E2AE07F
:1005B00030E01DC01F2D197F9F3661F0903720F469
:1005C000983509F0ACC00FC0903739F0983709F072
:1005D000A6C004C028E030E00AC0106114FD146019
:1005E00020E130E004C014FD166020E132E017FF86
:1005F00008C0F501608171818281938144E050E0FF
:1006000008C0F50180819181BC0180E090E042E06A
:1006100050E0A40EB51EA1010E940105D82ED218EB
:100620008FE7F82EF122F6FE0BC05EEFF522D9140B
:1006300038F4F4FE07C0F2FC05C08FEEF82202C0C9
:100640001D2D01C0192DF4FE0DC0FE01ED0DF11D93
:100650008081803319F499EEF92208C01F5FF2FE01
:1006600005C003C08F2D867809F01F5F0F2DF3FCA6
:1006700014C0F0FE0FC01E1510F09D2C0BC09D2C59
:100680009E0C911A1E2D06C080E290E0B3010E94DC
:10069000D5041F5F1E15C0F304C01E1510F4E11A27
:1006A00001C0EE2404FF0FC080E390E0B3010E947C
:1006B000D50402FF1DC001FD03C088E790E00EC015
:1006C00088E590E00BC0802F867891F001FF02C092
:1006D0008BE201C080E2F7FC8DE290E0B3010E9462
:1006E000D50406C080E390E0B3010E94D5049A943B
:1006F000D914C0F3DA94F101ED0DF11D808190E081
:10070000B3010E94D504DD20A9F706C080E290E085
:10071000B3010E94D504EA94EE20C1F743CEF30161
:1007200066817781CB012B96E2E10C947B050F93D8
:100730001F93CF93DF93689F8001699F100D789F6F
:10074000100D1124C8010E94B303EC01009729F099
:1007500060E070E0A8010E94C304CE01DF91CF9158
:100760001F910F910895CF93DF93BC0182309105C3
:1007700010F462E070E0A0912201B0912301ED013C
:10078000E0E0F0E040E050E021C0888199818617E8
:10079000970769F48A819B81309719F0938382834C
:1007A00004C09093230180932201FE0134C0681796
:1007B000790738F44115510519F08417950708F4A5
:1007C000AC01FE018A819B819C01E9012097E9F639
:1007D00041155105A9F1CA01861B970B049708F42E
:1007E000BA01E0E0F0E02AC08D919C911197841746
:1007F0009507F9F46417750781F412968D919C9111
:100800001397309719F09383828304C09093230148
:1008100080932201FD0132964FC0CA01861B970BBF
:10082000FD01E80FF91F6193719302978D939C93DB
:1008300043C0FD01828193819C01D9011097A1F6EB
:100840008091200190912101892B41F48091160122
:1008500090911701909321018093200140911801FC
:10086000509119014115510541F44DB75EB7809182
:10087000140190911501481B590B209120013091D2
:10088000210124173507B0F4CA01821B930B861788
:10089000970780F0AB014E5F5F4F8417950750F0CC
:1008A000420F531F5093210140932001F90161939E
:1008B000719302C0E0E0F0E0CF01DF91CF910895A5
:1008C000CF93DF93009709F450C0EC0122971B826D
:1008D0001A82A0912201B0912301109709F140E002
:1008E00050E0AC17BD0708F1BB83AA83FE0121913C
:1008F0003191E20FF31FAE17BF0779F48D919C91F0
:100900001197280F391F2E5F3F4F39832883129686
:100910008D919C9113979B838A834115510571F4A6
:10092000D0932301C093220120C012968D919C91F7
:100930001397AD01009711F0DC01D3CFFA01D383F7
:10094000C28321913191E20FF31FCE17DF0769F4C3
:1009500088819981280F391F2E5F3F4FFA0131831B
:1009600020838A819B8193838283DF91CF91089535
:10097000FC010590615070400110D8F7809590956A
:100980008E0F9F1F0895DC0101C06D9341505040B0
:10099000E0F70895FC016150704001900110D8F714
:1009A000809590958E0F9F1F08950F931F93CF935F
:1009B000DF938C01EB018B8181FF1BC082FF0DC097
:1009C0002E813F818C819D812817390764F4E8814D
:1009D000F9810193F983E88306C0E885F985802FC2
:1009E0000995892B31F48E819F8101969F838E8397
:1009F00002C00FEF1FEFC801DF91CF911F910F9140
:100A00000895FA01AA27283051F1203181F1E894A4
:100A10006F936E7F6E5F7F4F8F4F9F4FAF4FB1E0F1
:100A20003ED0B4E03CD0670F781F891F9A1FA11DEC
:100A3000680F791F8A1F911DA11D6A0F711D811DED
:100A4000911DA11D20D009F468943F912AE0269FB2
:100A500011243019305D3193DEF6CF010895462F11
:100A60004770405D4193B3E00FD0C9F7F6CF462FF2
:100A70004F70405D4A3318F0495D31FD405241935B
:100A800002D0A9F7EACFB4E0A69597958795779518
:100A90006795BA95C9F700976105710508959B019F
:100AA000AC010A2E06945795479537952795BA9528
:100AB000C9F7620F731F841F951FA01D08952F9201
:100AC0003F924F925F926F927F928F929F92AF92DE
:100AD000BF92CF92DF92EF92FF920F931F93CF932B
:100AE000DF93CDB7DEB7CA1BDB0B0FB6F894DEBFC2
:100AF0000FBECDBF09942A88398848885F846E84E8
:100B00007D848C849B84AA84B984C884DF80EE8031
:100B1000FD800C811B81AA81B981CE0FD11D0FB63A
:100B2000F894DEBF0FBECDBFED010895F894FFCF5E
:100B30004B6F6E74726F6C61204932430D0A002551
:0A0B4000640A0D00200024010000EB
:00000001FF
