:100000000C94380018950000189500001895000011
:10001000189500001895000018950000189500002C
:10002000189500001895000018950000189500001C
:10003000189500001895000018950000189500000C
:1000400018950000189500001895000018950000FC
:1000500018950000189500001895000018950000EC
:1000600018950000189500001895000018950000DC
:100070008FEF8DBFC8EDE0EC4E2E84E08EBFD4E054
:10008000F4E05F2EA89584B7082E877F84BF88E1AF
:10009000992781BD91BDEEEFF3E0A0E0B1E08827A4
:1000A0008D933197E9F789E189B980E080BD88E1D6
:1000B0008AB96624EEEFF0E00E9464000E946B00B3
:1000C0000C945A00F894FFCF0E947B00802D11F011
:1000D00005D0FACF08958DE001D08AE05D9BFECF78
:1000E0008CB908953197F1F70895689462F80895EE
:1000F000E89462F80895C8953196002008954F4C11
:04010000454B00006B
:00000001FF
